:020000040800F2
:10000000501800209D010008631A0008A302000890
:10001000611A0008E1050008E91D00080000000061
:10002000000000000000000000000000651A000849
:10003000A106000800000000EF010008671A000890
:10004000B7010008B7010008B7010008B7010008B0
:10005000B7010008B7010008B7010008B7010008A0
:10006000B7010008B7010008B7010008B701000890
:10007000B7010008B7010008B7010008B701000880
:10008000B7010008B701000875040008B7010008AF
:10009000B7010008B7010008B7010008B701000860
:1000A000B7010008B7010008B7010008B701000850
:1000B000B7010008B7010008B7010008B701000840
:1000C000B7010008B7010008B7010008B701000830
:1000D000B7010008DD1D0008B7010008B7010008DE
:1000E000B7010008B7010008B7010008B701000810
:1000F000B7010008B7010008B7010008B701000800
:10010000B7010008B7010008B7010008B7010008EF
:10011000B7010008B7010008B7010008B7010008DF
:10012000E5050008B7010008F1050008B70100085F
:10013000B7010008B7010008B7010008B7010008BF
:10014000B7010008B7010008B7010008B7010008AF
:10015000B7010008B7010008B7010008B70100089F
:10016000B7010008B7010008B7010008B70100088F
:10017000B7010008B7010008B7010008000000003F
:10018000B7010008B7010008DFF80CD000F014F93F
:1001900000480047DD03000850180020064880474B
:1001A00006480047FEE7FEE7FEE7FEE7FEE7FEE75C
:1001B000FEE7FEE7FEE7FEE7711B00088901000885
:1001C000EFF3108072B6704780F310887047434A8F
:1001D0001368012B04D04FF001031360404A1060F4
:1001E000404A116040484FF0805101607047EFF382
:1001F000108272B63948016851B34FF000010160B6
:100200003748016891B1EFF309811EF0100F08BF64
:1002100021ED108B21E9F00F4FF000041EF0100FBC
:1002200008BF012441F8044D006801602D490968A8
:10023000096808C9B1E8F00F002B18BFB1EC108BAA
:1002400081F309884EF0100E002B18BF2EF0100E0F
:1002500082F310884EF0040E704722490860EFF3D5
:10026000148222F0040282F314881D494FF000002A
:1002700008601A494FF0010008601C484FF47F01E4
:10028000D0F8002041EA0201016017484FF0805188
:10029000016017480068006880F3088861B662B69C
:1002A00070471EF0040F0CBFEFF30880EFF30980D6
:1002B00020E9F00F40F804ED40F804ED1EF0040FC3
:1002C0000CBF80F3088880F3098800B502F01CF8A1
:1002D0005DF804EB4EF0040E70470000280000208B
:1002E000200000202400002004ED00E020ED00E0CC
:1002F00008ED00E02DE9F05F0546002092469B46A0
:1003000088460646814640241BE02846414647462B
:10031000224600F041F853465A46C01A914110D384
:1003200011461846224600F028F82D1A67EB0108FE
:100330004F4622460120002100F01FF817EB00096C
:100340004E41201EA4F10104DFDC484631462A4616
:100350004346BDE8F09FD2B201E000F8012B491EF0
:10036000FBD270470022F6E710B513460A46044652
:100370001946FFF7F0FF204610BD202A04DB203A83
:1003800000FA02F1002070479140C2F1200320FAE8
:1003900003F3194390407047202A04DB203A21FAE6
:1003A00002F00021704721FA02F3D040C2F120028E
:1003B0009140084319467047064C074D06E0E06837
:1003C00040F0010394E8070098471034AC42F6D39C
:1003D000FFF7DEFEAC350008CC35000810B503F0A1
:1003E00013F8002010BD10B50146806B026C12F0AE
:1003F000500F05D0026CD20626D500F0FDF910BDD5
:10040000016C41F40071016401688A6812F0405F78
:1004100017D1027EAAB9CA6A12F4700F02D08A6894
:1004200052050ED44A6822F020024A60016C21F481
:1004300080710164016CC90403D4016C41F00101B5
:10044000016400F0D7F910BD806BC26CBDE81040AC
:100450000846104710B5806B40210164416C41F0A3
:100460000401416400F0C8F910BD10B5806B00F0C4
:10047000C2F910BD014800F0C0B90000AC00002076
:10048000464910B54A6822F440324A604A684368D7
:100490001A434A6001684A6822F480724A6001681F
:1004A0004A68036942EA03224A6001684A6822F006
:1004B00040724A6001684A6883681A434A6001686A
:1004C0008A6822F400628A6001688A68C3681A43F5
:1004D0008A60816A6FF07062D14201688A6822F096
:1004E00070628A6001688A680CD0836A1A438A60E5
:1004F00001688A6822F040528A6001688A68C36A8B
:100500001A4301E022F040528A6001688A6822F0B2
:1005100002028A6001688A68037E42EA43028A60B6
:1005200090F82010002901684A680FD042F4006258
:100530004A6001684A6822F460424A6001684A6879
:10054000174C436A04EB43331A4301E022F4006280
:100550004A600168CA6A22F47002CA620168CA6A03
:10056000838B104C04EB03531A43CA6201688A68F8
:1005700022F400728A6001688A6890F8303042EA9A
:1005800043228A6001688A6822F480628A60016876
:100590008A68406942EA8020886010BD00230140DB
:1005A00000E0FFFF0000F0FF0A4E00244FF48065DA
:1005B000641C052C05D9002402220749074800F0D5
:1005C00037FA2946304600F02BFD0A2002F00EFCD7
:1005D000EEE700000014024004000020AC00002000
:1005E000FEE70000014800F0CDBA0000F400002052
:1005F000014800F0C7BA00009401002001681823E8
:10060000CAB2103AB2FBF3F2054B6FF30901032AA9
:100610009B5CC36500D9091D8165084670470000D1
:100620005A34000810B5014600208B698A6A4FF0E1
:10063000C07453B1B3F5005F15D072B1012A0CD06C
:10064000022A0AD0032A09D104E01AB1012A06D0ED
:10065000022A03D1C96AC90100D5012010BDC96AA7
:10066000A142FAD010BD002AF7D0012AF2D0022A06
:10067000F3D0032AF3D010BD30B50468256825F403
:1006800080252560046863608368402B036803D07D
:1006900099600068C26030BD9A600068C16030BD7A
:1006A000704770477047000078B50024009490F8B8
:1006B0003C20012A19D0012280F83C200A68072337
:1006C0000568092A13D9EE680A3A02EB4202934000
:1006D0009E43EE600B788A680A3B03EB43039A4023
:1006E0000368DD682A43DA6010E0022078BD2E69D5
:1006F00002EB420293409E432E610B788A6803EB23
:1007000043039A4003681D692A431A614A681F23FC
:10071000072A13D205686E6B521E02EB82029340C9
:100720009E436E630B790A885B1E92B203EB8303D0
:100730009A4003685D6B2A435A6327E005680D2AD7
:1007400012D22E6BD21F02EB820293409E432E6385
:100750000B790A88DB1F92B203EB83039A4003688C
:100760001D6B2A431A6311E0EE6A0D3A02EB820216
:1007700093409E43EE620B790A880D3B92B203EBE5
:1007800083039A400368DD6A2A43DA62164B0568E0
:10079000144A9D4206D10D68122D03D1556845F4C7
:1007A0008005556005689D4218D10B68102B01D05B
:1007B000112B13D1536843F40003536009681029C7
:1007C0000CD10A490A4A0968B1FBF2F101EB810137
:1007D000490000E0491E00910029FBD180F83C400F
:1007E000002078BD002301400020014018000020B7
:1007F00040420F0070477047704770B5044600686C
:1008000001684268C1F34001C2F3401251B34AB3D8
:10081000216CC90603D4216C41F400712164816804
:1008200011F0405F17D1217EA9B9C16A11F4700F90
:1008300002D0816849050ED4416821F02001416051
:10084000206C20F480702064206CC00403D4206CE1
:1008500040F0010020642046FFF7CCFF21686FF0D4
:1008600012000860206801684268C1F38001C2F389
:10087000C01289B382B3216CC90603D4216C41F440
:1008800000512164816811F4401F1ED1816B11F465
:10089000401F02D08168490517D44168490514D426
:1008A000816811F0405F10D1217E71B9416821F05B
:1008B00080014160206C20F480502064206CC005D1
:1008C00003D4206C40F0010020642046FFF7EAFECC
:1008D00021686FF00C00086020680168426811F020
:1008E000010FC2F380120ED06AB10068C0070AD0AF
:1008F000206C40F480302064204600F046F82168E7
:100900006FF001000860206801684268C1F340117F
:10091000C2F3806200290DD0002A0BD0616C41F037
:10092000020161646FF0200505602046FFF764FF57
:100930002068056070BD70B504004FF0000503D05D
:10094000206C002610B107E0012070BD204600F0A9
:100950001DF8666484F83C60206CC00610D4206CDE
:1009600020F4885040F0020020642046FFF788FD04
:100970006664206C20F0020040F00100206400E07A
:10098000012584F83C60284670BD704770B586B07C
:10099000064614216846FFF7E5FC20493068884286
:1009A0003AD11F480025016841F480710160006858
:1009B00000F4807005901A481438016841F0010174
:1009C00001600068694600F0010005900320009076
:1009D000CDE90105134800F047FA144C1248C4E968
:1009E00000050015A560C4E9035080006061800027
:1009F000C4E9060525622046656200F093F908B156
:100A0000FFF74FFEB463002211461220A66300F0E8
:100A100079FB122000F068FB06B070BD0020014099
:100A2000443802400000024010640240F4000020FC
:100A3000F8B50E4600210446009190F83C000128CC
:100A400007D0012084F83C0020688368DB0702D0CF
:100A500011E00220F8BD836843F00103836037484A
:100A6000374B0068B0FBF3F000EB400000E0401EA5
:100A700000900028FBD120688368DB075CD0236CE2
:100A800040F20165AB4343F4807323644068400542
:100A900005D5206C20F4005040F480502064206C78
:100AA000C00404D5606C20F00600606400E061645E
:100AB00084F83C10A16B2448224DC863A16B2348E5
:100AC0000864A16B2248C86421686FF022000860A6
:100AD0002068416841F0806141602068816841F48C
:100AE000807181602168134632464C31A06B00F062
:100AF00083F968681749C006206806D088421BD170
:100B0000816811F0405F13D016E08842F8D0124A95
:100B1000904203D1D1F80423D206F1D00F4A90427B
:100B20000AD1D1F8041301F01F011029E8D303E022
:100B3000816841F0804181600020F8BD18000020EC
:100B400040420F0000230140E70300086B04000847
:100B5000550400080020014000210140002201400E
:100B600090F83510022903D080214165012070479B
:100B7000052180F835100068016821F0010101604D
:100B8000002070472DE9F84304464FF00009CDF8E6
:100B9000009063484FF41651A56D0068B0FBF1F763
:100BA0002E6894F85C10082000FA01F131420FD051
:100BB00021680A6852070BD50A6822F004020A600D
:100BC00094F85C108840A860606D40F0010060659A
:100BD00094F85C104FF0010808FA01F0304208D098
:100BE00021684969090604D5A860606D40F00200DB
:100BF000606594F85C1004208840304208D0216879
:100C00000968890704D5A860606D40F0040060653C
:100C100094F85C1010208840304218D02168096890
:100C2000090714D5A86020680168490304D5006845
:100C3000000308D5A16C07E00168C90503D4016869
:100C400021F008010160216C09B12046884794F821
:100C50005C1020208840304231D021680968C906E4
:100C60002DD5A86094F8350005282068016806D0C5
:100C7000490347D5006800031DD4616C1CE021F0D6
:100C8000160101602068416921F080014161206CFA
:100C900008B9A06C20B12068016821F0080101604A
:100CA00094F85C103F208840A86084F8349084F861
:100CB0003580216D1FE0E16B09B120468847606DEA
:100CC00000282BD0606DC00714D0052084F83500B3
:100CD0002068016821F0010101600098401C00902B
:100CE000B84203D820680068C007F6D184F8349071
:100CF00084F83580E16C002910D001B02046BDE8B1
:100D0000F04308470168C905D5D4016821F01001F6
:100D1000016084F8349084F83580CCE7BDE8F8832E
:100D2000180000202DE9F041044600F085F9064640
:100D30005CB1002584F83450022084F83500206826
:100D4000016821F0010101600DE00120BDE8F081A2
:100D500000F072F9801B052805D92020606503206A
:100D600084F83500F2E720680068C007F0D12268F7
:100D7000116820480140D4E901031843D4E903363F
:100D80003343184363691843A3691843E36918435D
:100D9000236A18430843616A042903D1D4E90B1379
:100DA00019430843106020684069666A20F0070113
:100DB00030460E43012704280CD1A06A0643E06A9E
:100DC00040B12046FFF72EFC20B14020606584F83A
:100DD0003570BAE7206846612046FFF70FFC94F8AB
:100DE0005C203F2191408160656584F8357000206A
:100DF000ACE700003F8010F02DE9F0410446866D1D
:100E000090F83400002501280DD0012084F834002A
:100E100094F835700020012F07D084F834000225A3
:100E20002846BDE8F0810220FBE7022784F83570F0
:100E300060652046FFF720FC94F85C103F20884056
:100E4000B0602068016841F016010160206C20B19B
:100E50002068016841F0080101602068016841F0E4
:100E600001010160DCE700002DE9F84F00224FF09E
:100E7000010803254FF00F0E0B6808FA02F4234017
:100E8000A3426ED14E68012E05D0022E03D0112E42
:100E900001D0122E12D186684FEA420C05FA0CF7E7
:100EA000BE43CF6807FA0CF7374387604668A6430E
:100EB0000C79C4F30014944034434460C66857006E
:100EC00005FA07FC8C6826EA0C06BC403443C46073
:100ED0004C68022C01D0122C13D1D40800EB8404EE
:100EE000A346D4F8209054074FEAD46A0EFA0AF6C3
:100EF00029EA06090E6906FA0AF646EA0906CBF857
:100F0000206006680C7926EA0C0604F00304BC4055
:100F1000344304604C68E40065D5364C266846F4DA
:100F200080462660246822F0030604F4804400947E
:100F3000314C3444A446D4F808489607370F0EFACB
:100F400007F6B4432D4EB04201D1002624E02C4ECA
:100F5000B04201D101261FE02A4EB04202D1022642
:100F60001AE040E0284EB04201D1032614E0274E9B
:100F7000B04201D104260FE0254EB04201D1052632
:100F80000AE0244EB04201D1062605E0224EB042CE
:100F900001D1072600E00826BE402643CCF80868A9
:100FA0001E4E34684F689C43FF0300D51C433460D9
:100FB0001A4C241D26684F689E43BF0300D51E436C
:100FC0002660164E083634684F689C43FF0200D5F1
:100FD0001C433460114E0C3634684F689C43BF028A
:100FE00000D51C433460521C102AFFF445AFBDE805
:100FF000F88F0000443802400030014000000240F9
:101000000004024000080240000C024000100240B0
:101010000014024000180240001C0240003C014045
:10102000426931EA020200D10904816170470AB1C4
:10103000816170470904FBE7014880687047000040
:101040000C0000200B4810B5016841F400710160EC
:10105000016841F480610160016841F480710160C0
:10106000032000F06FF8002000F006F800F024F8EC
:10107000002010BD003C024070B50D4D04464FF4F9
:101080007A712878B1FBF0F00A490968B1FBF0F0F9
:1010900000F002FB48B9102C07D200222146501E56
:1010A00000F030F800206C6070BD012070BD0000C1
:1010B0000C000020180000200A4808B5016841F41F
:1010C00080410160006800F4804000900548001FE6
:1010D000016841F080510160006800F0805000908C
:1010E00008BD000044380240002809DB00F01F0260
:1010F000012191404009800000F1E020C0F800117A
:1011000070470000F0B40E4B1B680C46C3F302237B
:10111000C3F10705042D00D90425191D072901D2A3
:10112000002300E0DB1E012606FA05F1491E2140DE
:1011300099409E40761E16403143F0BC00F055BEEB
:101140000CED00E0064900F0070208684FF6FF03C7
:10115000184040EA0220034A10430860704700002C
:101160000CED00E00000FA052DE9F0470E46050001
:1011700065D0DFF81481D8F80000F7B200F00F0056
:10118000B04207D288F80070D8F8000000F00F00D5
:10119000B04254D128683D4C810712D5400703D591
:1011A000206840F4E05020602878000703D52068CC
:1011B00040F4604020602068A96820F0F0000843F7
:1011C00020602878C0072DD0304968680839012888
:1011D00012D0022813D0032811D0096889070029EA
:1011E0002DDA216821F0030101432160FFF724FF7C
:1011F000814641F2883A0EE009688903EFE7096801
:101200008901ECE7FFF718FFA0EB0901514502D96E
:101210000320BDE8F0872068696800F00C00B0EB9F
:10122000810FEFD1D8F80010404601F00F01B14214
:1012300007D90770006800F00F00B04201D001200C
:10124000E7E72878400705D52068E96820F4E050F2
:10125000084320602878000706D52068296920F413
:10126000604040EAC100206000F038F82168084A78
:10127000C1F30311515CC840064908600648006884
:10128000FFF7FAFE0020C4E7003C024008380240A5
:1012900062340008180000201000002004480549AE
:1012A00000680968044AC1F38221515CC840704754
:1012B000180000200838024072340008044805492C
:1012C00000680968044AC1F34231515CC840704764
:1012D000180000200838024072340008154810B584
:1012E000006810F00C02144813D04110042A0FD0EB
:1012F000082A0ED10F4C241F2268236802F03F02F7
:101300005B0207D52068C0F38810A0FB010106E04E
:10131000084610BD2168C1F38811A1FB000100231C
:10132000FEF7E8FF2168C1F30141491C4900B0FB09
:10133000F1F010BD083802400024F4002DE9F84F08
:10134000040076D02078DFF838A3CE4DC00749D00E
:10135000DAF800105046C1F38101012908D0006875
:10136000C0F3810002280AD1281D0068400206D57A
:101370002868800336D560680028E2D032E06068D3
:10138000B0F5803F10D0B0F5A02F286810D020F421
:1013900080302860286820F4802028606068A0B130
:1013A000FFF74AFE06460CE0286840F48030F4E778
:1013B00040F480202860F7E7FFF73EFE801B64289A
:1013C00073D828688003F7D50CE0FFF735FE064692
:1013D00005E000BFFFF730FE801B6428F0D82868C6
:1013E0008003F7D42078DFF8A08280074FF000094F
:1013F0003ED5DAF80010504611F00C0F09D0006805
:10140000C0F3810002280BD19D48001F00684002F4
:1014100006D42868800715D5E068012809D111E0B5
:10142000E068B8B10120C8F80000FFF705FE0646E5
:1014300005E020E1FFF700FE801B0228C0D82868E5
:101440008007F7D52868216920F0F80040EAC1003C
:1014500028600DE0C8F80090FFF7EEFD064604E0B6
:10146000FFF7EAFD801B02281FD828688007F7D401
:101470002078000722D5824E844861696C3671B1AC
:1014800001210160FFF7D8FD074604E0FFF7D4FD16
:10149000C01B022809D830688007F7D50EE0C0F8D5
:1014A0000090FFF7C9FD074605E082E0FFF7C4FDA5
:1014B000C01B02287DD830688007F7D42078400709
:1014C00068D5DFF8BCB100270BF1380BDBF8000062
:1014D000C0000BD4DBF8001041F08051CBF80010B5
:1014E000DBF80000012700F080500090684E306863
:1014F000C00510D4306840F480703060FFF79CFD68
:10150000009005E0FFF798FD0099401A022850D896
:101510003068C005F6D55A4EA068683601280FD04D
:101520000528306810D020F001003060306820F0CD
:1015300004003060A068B8B1FFF77EFD00900FE0B6
:10154000306840F00100F4E740F004003060F7E755
:10155000FFF772FD0099411A41F28830814266D846
:1015600030688007F4D50EE0FFF766FD009007E0D5
:10157000FFF762FD0099411A41F28830814256D846
:1015800030688007F4D42FB1DBF8001021F08051CF
:10159000CBF80010A069D0B3DAF800205146C2F3AE
:1015A0008102022A4AD00228484607D0C8F86000C3
:1015B00000E03CE0FFF740FD04463BE04746C8F84A
:1015C0006000FFF739FD064605E000BFFFF734FD78
:1015D000801B02282BD828688001F7D4D4E90701A2
:1015E0000843A16A2B4A490802EB0141626A41EAB9
:1015F0008211084394F82C1040EA01612048001F32
:10160000016001203866FFF717FD044605E034E06D
:10161000FFF712FD001B022809D828688001F7D5C2
:101620002BE000BFFFF708FD001B022802D90320B2
:10163000BDE8F88F28688001F4D41EE00128F7D0B7
:101640000868E26900F48001914214D1226A00F036
:101650003F0191420FD147F6C071626A0140914249
:1016600009D1A26A00F44031914204D1E16A00F04C
:101670007060884201D00120DAE70020D8E700003E
:10168000083802400038024000004742800E4742BE
:10169000007000400000FFFF10B5401EB0F1807FD9
:1016A00001D3012010BD4FF0E02460610F216017CD
:1016B00000F09BFB0020A06107202061002010BDEE
:1016C0007047000070B5026804461068D16853691D
:1016D00010F00F0F52D003F0010501F490762E4365
:1016E0005FD0C20705D0CA0503D5E26B42F0010204
:1016F000E263420705D5DA0703D0E26B42F002024B
:10170000E263820705D5DA0703D0E26B42F00402F8
:10171000E263020707D501F020022A4303D0E26BFF
:1017200042F00802E263E26B002A33D0800604D55F
:10173000880602D5204600F03FFA20684069E16B38
:10174000C0F38010090700D428B3204600F026FA21
:101750002068416949061AD5416921F0400141617B
:10176000606BA0B11B490165606BFFF7F9F90028B8
:1017700010D0606B016DBDE870400847830610D53E
:101780008B060ED52046BDE8704000F015BA204605
:10179000FFF796FF70BD2046FFF792FF0020E06341
:1017A00070BD030606D50B0604D52046BDE8704083
:1017B00000F0E2BA4006F3D54806F1D5D1682046DC
:1017C00021F04001D160202184F8391000F091F817
:1017D00070BD00008D1B000870B5040004D094F8A3
:1017E0003900002510B106E0012070BD84F83850A2
:1017F000204600F023F8242084F839002068C168CE
:1018000021F40051C160204600F022FA20680169ED
:1018100021F4904101612068416921F02A01416170
:101820002068C16841F40051C160E563202084F85C
:10183000390084F83A00002070BD000070B586B011
:10184000064614216846FEF78DFD2449306888421B
:1018500042D123480025016841F010010160006871
:1018600000F0100005901E481438016841F0010195
:1018700001600068694600F0010005904FF4C06007
:101880000090022001900120029003200390072085
:1018900004901448FFF7E8FA144C134820604FF006
:1018A0000060C4E901054014C4E90350801065617B
:1018B000C4E90650256220466562FFF733FA08B195
:1018C000FEF7EFFE7463002211462520A663FFF7A2
:1018D00019FC2520FFF708FC06B070BD0010014080
:1018E000443802400000024040640240940100205D
:1018F000704770477FB500241A4800940194029401
:1019000017490394016001254FF480310561C0E956
:101910000114057680F820401349C0E90A14022614
:10192000C661C46080F830504461FFF704F808B124
:10193000FEF7B7FECDE9004569460A480294FEF776
:10194000B3FE08B1FEF7ADFECDE900566946054885
:10195000FEF7AAFE002801D0FEF7A3FE7FBD00001F
:1019600000200140AC0000200100000F0D4808B528
:10197000016841F4800101600068002200F48000E9
:10198000009011463820FFF7BDFB3820FFF7ACFB75
:10199000002211463A20FFF7B5FBBDE808403A2087
:1019A000FFF7A2BB3038024070B586B014216846FC
:1019B000FEF7D8FC1A480024016841F004010160D8
:1019C000016801F004010591016841F02001016006
:1019D000016801F020010591016841F0800101607A
:1019E000016801F080010591016841F00101016089
:1019F00000680C4E00F001004FF4C0650590002215
:101A000029463046FFF713FB01200095CDE901047C
:101A1000694630460394FFF727FA06B070BD000010
:101A200030380240001402400C4810B50A490160E9
:101A30004FF4E1314160002181600C22C160C0E9B6
:101A400004128161C161FFF7C7FE002803D0BDE821
:101A50001040FEF726BE10BD0010014054010020CA
:101A6000FEE77047704710B500F074FD01F0A2FA70
:101A7000BDE8104000F07CBD30B593B03021684621
:101A8000FEF770FC14210CA8FEF76CFC184800252A
:101A9000016841F080510160006800F080501190B1
:101AA0001448016841F4804101600068022400F498
:101AB0008040119001200090000401908001CDE948
:101AC000064008AA0420542182E813000B906846BF
:101AD000FFF734FC0CA90F2081E83100E002CDE9CA
:101AE0000F0502210CA8FFF73FFB13B030BD00002B
:101AF000403802400070004070B5194C2068194A07
:101B000010F00C01184804D05510042903D00829FE
:101B100003D002601BE0056019E01149091F0B6842
:101B2000C3F380560B6803F03F0316B1B5FBF3F225
:101B300001E0B2FBF3F20B680968C3F388135A4360
:101B4000C1F30141491C4900B2FBF1F10160216878
:101B5000064AC1F30311515C0268CA40026070BDBD
:101B6000083802400024F400180000206234000805
:101B70000548016841F47001016003494FF00060BD
:101B8000803908607047000088ED00E010B5806B78
:101B90000021C185C184FFF793FD10BD0168CA68AB
:101BA00022F49072CA6001684A6922F001024A6117
:101BB000202180F83A10704710B590F83A10222989
:101BC00001D0022010BD8168B1F5805F11D001699C
:101BD000002901681FD0496801F07F03816A4A1C0F
:101BE00082620B70C18D491E0904090CC18518D091
:101BF0002BE00269816A002A0268526805D0D2B2DD
:101C00000A80816A491C8162ECE7C2F308020A80FB
:101C1000816A891CF7E74A68816A4B1C83620A70F3
:101C2000E0E70168CA6822F02002CA600168CA6859
:101C300022F48072CA6001684A6922F001024A6196
:101C4000202180F83A10FFF753FE002010BD00005D
:101C50002DE9F041044600680169E26821F4405131
:101C6000114301612169A068E26908436169114378
:101C700008432168CA6849F20C639A430243CA6068
:101C800020684169A26921F4407111434161E06912
:101C9000192764253226B0F5004F354A35492068AA
:101CA0004FF0000806D0884201D0904236D1FFF7AD
:101CB00005FB35E0884201D0904202D1FFF7FEFAE1
:101CC00001E0FFF7EBFA61684A18A0FB070148EB57
:101CD0000803FEF70FFB0146B0FBF5F00201B1FB74
:101CE000F5F06FF01803584301EB800006EBC000DD
:101CF000B0FBF5F000F0F80002EB4002B1FBF5F0AC
:101D0000584301EB800006EBC000B0FBF5F000F09B
:101D10000700216810448860BDE8F081FFF7BEFA33
:101D200061688B0F8A00A0FB0701FEF7E3FA01460A
:101D3000B0FBF5F06FF01802504301EB800006EBAA
:101D40000010B0FBF5F000F0F002B1FBF5F002EB93
:101D50000012B1FBF5F06FF01803584301EB80005F
:101D600006EB0010B0FBF5F000F00F00D1E700002B
:101D7000001401400010014090F83910212901D0D1
:101D8000022070478168B1F5805F016A0BD04A1C60
:101D90000262026809785160C18C491E0904090C6D
:101DA000C1840ED017E009880268C1F308015160B0
:101DB00001690029016A02D0491C0162ECE7891C13
:101DC000FBE70168CA6822F08002CA600068C16847
:101DD00041F04001C1600020704700000148FFF75A
:101DE00071BC000054010020FEE70907090E00281D
:101DF00004DB00F1E02080F80014704700F00F00D1
:101E000000F1E02080F8141D70470000002807D082
:101E10000E4910F0FF0F04D051FA80F00078401CFA
:101E2000704710F47F4F04D0C0F30720085C0930DE
:101E3000704710F47F0F04D0C0F30740085C1130E6
:101E4000704701EB10600078193070477A34000851
:101E500002E008C8121F08C1002AFAD17047704773
:101E6000002001E001C1121F002AFBD170470000D1
:101E700003480168814201D001207047002070476B
:101E8000980000202DE9FC411F460446DDE9083199
:101E9000DDE90A65143040600060C4E90827C4E940
:101EA0000A310A46232118461C3400F04FFCD4E9BD
:101EB00003014218D4E90101104B121F00F02CFB62
:101EC00044F81A0B002004F801690D4A04F8036B6A
:101ED000E4E8020544F8105901C404F83C0B01C4BD
:101EE00044F87409009023460190194604F1440017
:101EF00001F0D2F80020BDE8FC810000AD2C000804
:101F0000F32E000810B5029C24F001044472C0E9CD
:101F100007120021C0E9093114304060006010BD93
:101F2000F0E905124A60D0E90012116040600060DB
:101F3000704700001CB5FFF785F8FFF79DFDFFF720
:101F400033FDFFF713FDFFF7D5FCFFF76DFD6421AF
:101F50000220CDE90001802300220A490AA000F0F6
:101F600080FE0A49086000F08DFF094D4FF40074AF
:101F70004FF4FA7621462846FFF752F8304600F033
:101F800035FFF7E7A9050008616463000000002041
:101F90000014024010B500F0EBF8BDE81040FFF768
:101FA000C9BF000030B5134943680A68134402F101
:101FB000080498420DD05D885DB94D68AB4208D0E9
:101FC0008D689D4200D188605D6845605B68851AB8
:101FD0001D518368134483420BD05D88002D08D1C6
:101FE0008D68854200D18B60416859604068991ABC
:101FF000015130BD340000202DE9F04F85B09946E5
:10200000DDE90EA5109CAB46630602D5DFF814C1CE
:1020100003E0DFF810C1ACF1110CE30601D524F0A8
:102020000104E30701D0302300E0202300260493BD
:10203000A3070BD5002A02DA2D26524206E06307D9
:1020400001D52B2602E0230700D520260023EE46EB
:1020500022B930228DF8002001230CE0B9F10A0FDB
:1020600014D002F00F0812091CF808800EF8038043
:102070005B1C002AF2D1AB4200DD1D46AAEB050233
:1020800014F0110F4FF0200708D015E00A27B2FB1B
:10209000F7F807FB1828B2FBF7F2E5E73EB1002A94
:1020A00005DD521E03E0884200D20770401CB2F1E9
:1020B000000CA2F10102F6DC26B1884200D20670C3
:1020C000401C521EE40605D508E0884201D2049C5B
:1020D0000470401C141EA2F10102F6DC30242E46CE
:1020E0006D1E9E420ADD884200D20470401CF6E755
:1020F000884201D2E55C0570401C00E074461D1E5C
:10210000A3F1010307DDBBF1000FF1D103E0884229
:1021100000D20770401C131EA2F10102F7DC05B0CB
:10212000BDE8F08F8B3500081CB502201421CDE9E5
:102130000001C3010022044904A000F092FDBDE8A3
:102140001C4000F09FBE0000951F00086D61696E85
:102150000000000070B5044C044D02E02068804788
:10216000241DAC42FAD370BDA0350008A435000888
:1021700070B5044C044D02E020688047241DAC4239
:10218000FAD370BDA4350008A835000810B5FEF7D5
:1021900017F8044A5188491C5180BDE81040FEF7E9
:1021A00013B800008C00002010B5FEF709F80B4CA6
:1021B0006188491E09B2618000290ADC0021618022
:1021C000FEF702F86068002807D0BDE8104000F074
:1021D0006DBBBDE81040FDF7F7BF10BD8C000020BF
:1021E00070B5002833D01A4D296888422FD369680A
:1021F00088422CD2A0F10C044FF0FF31154800F0BA
:10220000FAFB60884FF4F55610B12088B04208D030
:1022100011A000F0E5F923886288214615A000F09E
:10222000DFF9002060802680A868844200D2AC607C
:1022300029686068611A401A2969081A28612046CD
:10224000FFF7B0FEBDE87040024800F0B9BB70BDBA
:1022500034000020EC030020746F20667265652056
:102260006120626164206461746120626C6F636BE1
:102270003A0A00006D656D3A203078253038782CA8
:10228000207573656420666C61673A2025642C2094
:102290006D6167696320636F64653A20307825302B
:1022A00034780A00004870474C040020004870470A
:1022B0004C14002010B5FFF71FFC10484FF47A7142
:1022C0000068B0FBF1F0401EB0F1807F09D24FF002
:1022D000E0210B4A4861FF20107000208861072030
:1022E0000861FFF737FFFFF7E1FF0446FFF7DAFF6A
:1022F0002146BDE8104000F029BC00001800002075
:1023000023ED00E07047000070B52F4905462830E6
:1023100009682C1D11B18847002853D02BA0216CCF
:1023200000F05EF92DA0616A00F05AF92FA0A16AB1
:1023300000F056F931A0E16A00F052F933A0216BA8
:1023400000F04EF935A0616800F04AF937A0A168A5
:1023500000F046F939A0E16800F042F93BA021699C
:1023600000F03EF93DA0616900F03AF93FA0A16993
:1023700000F036F941A0E16900F032F943A0216A8A
:1023800000F02EF945A0616B00F02AF947A0A16B7F
:1023900000F026F949A0E16B00F022F92878400707
:1023A00006D500F049FD014648A000F019F902E009
:1023B0004EA000F015F92878C00602D452A000F013
:1023C0000FF9FEE770BD00001C0000207073723A28
:1023D000203078253038780A000000007230303A1A
:1023E000203078253038780A000000007230313A09
:1023F000203078253038780A000000007230323AF8
:10240000203078253038780A000000007230333AE6
:10241000203078253038780A000000007230343AD5
:10242000203078253038780A000000007230353AC4
:10243000203078253038780A000000007230363AB3
:10244000203078253038780A000000007230373AA2
:10245000203078253038780A000000007230383A91
:10246000203078253038780A000000007230393A80
:10247000203078253038780A000000007231303A78
:10248000203078253038780A000000007231313A67
:10249000203078253038780A000000007231323A56
:1024A000203078253038780A00000000206C723A1D
:1024B000203078253038780A000000002070633A18
:1024C000203078253038780A000000006861726496
:1024D000206661756C74206F6E207468726561642B
:1024E0003A2025730D0A0D0A00000000686172642D
:1024F000206661756C74206F6E2068616E646C6517
:10250000720D0A0D0A00000046505520616374697F
:102510007665210D0A00000070B50446121D22F0F8
:10252000070000220A4D443840F82250521C112A5C
:10253000FAD3416200218162C16200F13402016379
:1025400082E81A004FF080730364016070BD0000E0
:10255000EFBEADDE10B5FDF733FE044A1178491C1D
:102560001170BDE81040FDF72FBE000030000020C4
:1025700010B5FDF725FE044A1178491E1170BDE81B
:102580001040FDF721BE0000300000202DE9F04191
:10259000064614460D46084600F08AFC05F114076D
:1025A000B4B1012C18D134680EE000BF95F8351095
:1025B00094F82120A4F11400914204D23946143039
:1025C00000F033F802E02468B442EFD1B44203D102
:1025D0003946304600F029F80020BDE8F0810000BF
:1025E0000FB47F2110B503AB0448029A00F0C6FD7A
:1025F0000248FFF787FE10BC5DF814FB6C03002057
:102600000268516002680A600160486070470268B1
:10261000516002680A60016048607047026851605A
:1026200002680A6001604860704742681160426851
:102630004A60416008607047D0E900124A60D0E902
:1026400000121160406000607047D0E900124A60DB
:10265000D0E9001211604060006070472DE9F0473A
:10266000002807D0374CC01C20F00306E0688642E3
:1026700002D90020BDE8F0870C2E00D20C264FF0C6
:10268000FF31314800F0B7F9D4F808C02168E76895
:10269000ACEB0100BA1B4FE00D186B88E3BB6B6815
:1026A0001B1A0C3BB34246D36A6806F11803121A90
:1026B0000C3A4FF001094FF4F55A9A422DD3831981
:1026C0000C33CA184FF00008A2F800A0A2F802804C
:1026D000D5F80480C2E901806B60A5F802905068CB
:1026E0000C37B84202D001F108028350206930440F
:1026F0000C3020616269824200D26061A5F800A0BE
:10270000654512D1A06842887AB1626890420CD0C7
:1027100040680844A060F6E70DE0A5F802906868FC
:102720006A1A801A22691044E3E7074800F048F962
:1027300005F10C009EE768688242ADD8024800F0BF
:102740003FF996E734000020EC03002010B5034663
:10275000CCB2042A1AD3810718D1194644EA0423BB
:1027600043EA034306E008C1103A08C141F8083BB8
:1027700041F8043C102AF6D201E008C1121F042AD5
:10278000FBD20B4602E000BF03F8014B521EFBD206
:1027900010BD2DE9F0410F46064600F045F805460C
:1027A000C068FFF75BFF040019D00021EA68FFF75B
:1027B000CDFF26720020607208223946204600F0C4
:1027C000B1F9FDF7FDFC064604F10C01281DFFF7E9
:1027D00017FF3046FDF7F8FC2046BDE8F0810020E9
:1027E000FBE770B5044600202072FDF7E9FC0546C2
:1027F00004F10C00FFF720FF2846FDF7E5FC20461A
:10280000BDE87040FFF7ECBC70B5044600202072B4
:10281000FDF7D6FC054604F10C00FFF70DFF284636
:10282000BDE87040FDF7D0BC074A002102EB011360
:102830001B78834202D102EB01107047491C042926
:10284000F4DB0020704700004C0000202DE9F0412F
:10285000044616460D460846FFF7E6FF0746FFF713
:1028600095FC381D796800E009688142FCD1FFF7CA
:102870009BFC45F08000207208223146204600F083
:1028800051F9FDF79DFC054604F10C01381DFFF7D9
:10289000B7FE2846BDE8F041FDF796BC007A000679
:1028A00001D50120704700207047000070B5FDF78A
:1028B00087FC114C05466088B0B9A068FFF7A6FAFE
:1028C0000E49401E626851F83010143991420BD005
:1028D00020700B486160007801F11C01002802F1B2
:1028E0001C0006D0FDF773FC2846BDE87040FDF7DC
:1028F0006BBCFDF76CFCF7E78C0000200C0400209B
:102900003000002010B50446FDF75AFC024694F84A
:1029100034000E4920F00F00401C84F8340094F875
:10292000350001EBC00104F114004B6818604B68DE
:10293000A361486006486161A16B836819438160A7
:10294000BDE810401046FDF73FBC00000C0400201D
:102950008C00002010B50446FDF732FC04F1140190
:10296000D1E900235360D1E900231A60A1616161BC
:1029700094F83520074951F8323001EBC2018B42FF
:1029800004D10549A36B8A689A438A60BDE8104068
:10299000FDF71ABC0C0400208C0000202DE9F0414A
:1029A00016460A461F4605460221FFF74FFF05F16E
:1029B0001404AC616C61AE836F720020BDE8F081DD
:1029C00070B50446FDF7FCFB0546606904F114018F
:1029D000884208D0143800F010FA2846FDF7F4FBBE
:1029E000FFF764FF05E0A08B401CA0832846FDF79D
:1029F000EBFB002070BD73B50546FDF7E1FB064615
:102A0000A88B28B1401EA8833046FDF7DDFB21E0EE
:102A1000019808B300F010FA0446002020636A7A97
:102A2000214605F11400FFF7B1FD0198002809DDEA
:102A300004F1440001AA0021054600F005FB2846E8
:102A400000F03EFB3046FDF7BFFBFFF72FFF206B8A
:102A5000002800D100207CBD3046FDF7B5FB6FF0AB
:102A600001007CBD08B509A0FFF7BAFD0AA0FFF779
:102A7000B7FD12A0032300900122194612A0FFF710
:102A8000AFFDBDE8084018A0FFF7AABD0A205C20F2
:102A90007C202F0A000000002D205254202D2020E1
:102AA000202020546872656164204F7065726174E3
:102AB000696E672053797374656D0A0041707220E6
:102AC0003233203230323000202F207C205C202016
:102AD00020202025642E25642E2564206275696CD3
:102AE000642025730A0000002032303036202D206B
:102AF0003230313920436F707972696768742062AF
:102B0000792072742D746872656164207465616DDA
:102B10000A000000014600E0491C0A78002AFBD1A7
:102B2000081A704710B5002A07D0034611F8014B68
:102B300003F8014B2CB1521EF8D110BD03F8011B54
:102B400000E00021521EF9D110BD00000A46C11C50
:102B500010B522F0030321F00301182B20D9A3F1B3
:102B600018048C421CD3114C581A18382160E060AC
:102B70004FF4F5520A8000230C30C1E901034B8069
:102B80004B68194461600A8001224A80486088606D
:102B9000002307A10848FFF701FF2068A06010BDCF
:102BA0000146BDE8104005A0FFF71ABD3400002023
:102BB0006865617000000000EC0300206D656D2009
:102BC000696E69742C206572726F72206265676924
:102BD0006E206164647265737320307825782C20D0
:102BE000616E6420656E6420616464726573732035
:102BF000307825780A00000010B50A4900230A4CF5
:102C00004B80184604EBC002401C5260126008283A
:102C1000F8DB0720087003484B600C308B60406085
:102C2000006010BD8C0000200C04002010B5074C83
:102C3000A068FFF7EBF80649401E51F83000143841
:102C40006060BDE810401C30FDF707BB8C00002021
:102C50000C0400200148406000607047A400002080
:102C600070472DE9FF478946DDE90C76824601462B
:102C70001D4690460120FFF78CFD041E0DD028460E
:102C8000FFF7ECFC60B103968DE8A10043464A468D
:102C900051462046FFF7F6F8204604B0BDE8F0871D
:102CA0002046FFF79EFD0020F7E7000070B51348AF
:102CB0000468FDF785FA05462046FFF74BFE042021
:102CC00084F8340004F1440000F0D6F92046FFF700
:102CD000E5FD012801D1206F58B104F11401084825
:102CE000FFF795FC2846FDF76FFABDE87040FFF747
:102CF000DDBD2046FFF788FDF4E7000090000020CE
:102D00009800002000F002F8FCE7000070B527E012
:102D1000FDF756FA0546FFF7ABF858B318480168B7
:102D2000A1F11404D1E900024260D1E9000210606F
:102D300049600960FFF72AFA216F09B120468847E8
:102D40002046FFF7ABFD01280FD0FFF72DFA2846EC
:102D5000FDF73AFAA06AFFF743FA2046FFF741FD74
:102D6000FFF786F80028D3D170BD2046FFF74CFD51
:102D7000FFF71AFA2846BDE87040FDF725BA0000B3
:102D8000980000201FB5202308480722D9008DE8AD
:102D90000F000023064A07A1783800F00FF804B0AE
:102DA0000248BDE81040783800F06CB86C02002092
:102DB000052D00087469646C650000002DE9FF5F53
:102DC00092460EAA0C4692E8E0010A4699468346CE
:102DD0000121FFF73BFD8DE8E0014B4652462146BD
:102DE0005846FFF74FF804B0BDE8F09F10B500F06B
:102DF000C1F8BDE8104000F025B870B5044690F861
:102E0000340000F00F00022802D04FF0FF3070BDF8
:102E1000FDF7D6F9054604F11400FFF716FC04F19E
:102E2000440000F093F92846FDF7CEF92046FFF75D
:102E300069FD002070BD0000014800687047000077
:102E400090000020F1B5FDF7BBF905460C48046879
:102E5000204600F02DF804F144006A4600210646A1
:102E600000F0F2F8304600F02BF92846FDF7ACF9F7
:102E7000FFF71CFD206B801C00D120630020F8BDF3
:102E80009000002010B590F83610012280F835101F
:102E90008A400221826380F83410FFF7AEFF0348B6
:102EA000006808B1FFF702FD002010BD900000206F
:102EB00070B5044690F8340000F00F00012802D0ED
:102EC0004FF0FF3070BDFDF77BF9054694F83400F4
:102ED00020F00F00801C84F834002046FFF73AFDF4
:102EE00004F1440000F032F92846FDF76DF90020A6
:102EF00070BD10B504466FF00100206304F11400AA
:102F0000FFF7A3FB2046FFF7FDFCBDE81040FFF7ED
:102F1000CDBC000070B5FDF753F9064613480468B0
:102F200094F8340000F00F00012819D1D4E905010C
:102F3000884215D004F114000546FFF786FB94F88B
:102F400035000B4901EBC00041680D6041686960C4
:102F5000456028603046FDF737F9FFF7A7FC02E02F
:102F60003046FDF731F9002070BD000090000020D0
:102F70000C040020002802DA4FF0FF3070474FF4B5
:102F80007A7190FBF1F290FBF1F301FB130000EB7F
:102F900040034A43C3EBC0104B1E03EBC00090FB41
:102FA000F1F01044704700000148006870470000CD
:102FB0002C000020094810B50168491C0160FFF78A
:102FC0003BFF016C491E016403D1C16B0164FFF733
:102FD000A1FFBDE8104000F003B800002C00002065
:102FE0002DE9F041FFF7E0FF0646FDF7E9F8074657
:102FF000144D1EE060696FF00041301A143C8842A5
:103000001AD22046FEF78CFFD4E907108847FFF755
:10301000CBFF0646607A810708D5C10706D020F0AD
:1030200001006072204600F04BF802E020F0010041
:1030300060722C68AC42DDD13846BDE8F041FDF746
:10304000C3B80000A400002049B1012904D002291E
:1030500008D003290ED109E0406A10600AE0116827
:10306000416207E0417A21F0020102E0417A41F039
:10307000020141720020704770B50546FDF7A0F8C7
:1030800004462846FEF74CFF2046FDF79DF82846EB
:10309000FFF7BAFB002070BD2DE9F8439046DDE94B
:1030A00008450A461F4606460A21FFF7CFFB23467E
:1030B0003A46414630460095FEF724FFBDE8F883C6
:1030C000F8B50446FDF77CF805462046FEF728FFD4
:1030D000607A20F0010060722846FDF775F8FFF76E
:1030E00063FF616A0844A062FDF76AF80546164A64
:1030F0000020009202EBC002694653686FF0004C5A
:103100005DF820200BE01268A2EBC0067769A66A82
:10311000B74202D0BE1B664503D341F820209A4235
:10312000F1D10948001F0168491C016004F1140134
:103130000098FFF773FA607A40F001006072284649
:10314000FDF742F80020F8BDA400002070B5044649
:10315000407AC0070ED0FDF733F805462046FEF74B
:10316000DFFE2846FDF730F8607A20F0010060723B
:10317000002070BD4FF0FF3070BD00002DE9FF4F03
:103180008946044600EB090783B080464FF0FF3ABA
:103190004FF0200BA74202D25746C8F1FF3907E192
:1031A000252803D0BC4200D2207081E0002605997A
:1031B000491C059108782D2811D02B2812D02028E1
:1031C00013D0232814D0302815D00A785546303A29
:1031D0000A2A13D205A800F02CF905461AE046F099
:1031E0001006E4E746F00406E1E746F00806DEE7ED
:1031F00046F02006DBE746F00106D8E72A2809D189
:103200000698491C059120C80690002D02DA6D42EF
:1032100046F01006CDF800A0059801782E2918D1A7
:10322000401C05900178A1F130020A2A04D205A8B9
:1032300000F0FFF8009008E02A2908D1401C059012
:10324000069802C8069000910846002801DA00207E
:103250000090059800210278682A01D06C2A02D1DA
:10326000401C1146059000780A236F287DD00CDCA5
:1032700063281FD004DC25287BD058280DD17EE0A0
:10328000642801D0692808D17DE070285ED07328B9
:103290002CD0752879D0782873D0BC4201D2252053
:1032A00020700598641C0178D1B3BC4200D2217013
:1032B000641C7AE0F00608D458466D1E002D04DD2B
:1032C000BC4200D22070641CF7E70699BC4211F89A
:1032D000040B069100D22070584602E0BC4200D296
:1032E0002070641C6D1E002DF8DC5EE0069808C896
:1032F000069003B93EA31846FFF70CFC009900297D
:1033000002DD884200DD0846F1060AD459462A4605
:103310006D1E824205DDBC4200D22170641CF6E7BE
:1033200052E0002106E0BC4201D21A782270491C0A
:103330005B1C641C8142F6DB5A4629466D1E8142A5
:1033400033DDBC4200D22270641CF6E7681C02D157
:10335000082546F0010600980296CDE9005006982F
:103360001023394604C806901BE006E001E00CE09B
:1033700007E0BC429CD2252016E7082305E046F072
:103380004006102301E046F002066C2901D06829AE
:103390001DD0069804C8069000983946CDE9005023
:1033A00002962046FEF728FE04460598401C05902C
:1033B0000598007800287FF4F3AEB9F1000F11D022
:1033C000BC420DD220700DE0401E0590EDE706983E
:1033D00030F8041B06908AB2B007DDD512B2DBE7E5
:1033E00007F8010C07B0A4EB0800BDE8F08F00005F
:1033F000284E554C4C290000002070470020704793
:10340000002070470020704710B5FCF7D9FEFEF78A
:1034100051FFFFF727FBFFF71DFCFFF7EDFBFEF762
:1034200083FEFFF71DFCFFF7ADFCFFF7FFFB00205D
:1034300010BD10B5014600206FF02F0307E0541CAB
:103440000C60127800EB800003EB400010440A6827
:103450001478303C0A2CF2D310BD0006101600067A
:10346000101600000000000000000102030406071F
:10347000080900000000010203040000010002002E
:10348000010003000100020001000400010002002D
:10349000010003000100020001000500010002001C
:1034A000010003000100020001000400010002000D
:1034B00001000300010002000100060001000200FB
:1034C00001000300010002000100040001000200ED
:1034D00001000300010002000100050001000200DC
:1034E00001000300010002000100040001000200CD
:1034F00001000300010002000100070001000200BA
:1035000001000300010002000100040001000200AC
:10351000010003000100020001000500010002009B
:10352000010003000100020001000400010002008C
:10353000010003000100020001000600010002007A
:10354000010003000100020001000400010002006C
:10355000010003000100020001000500010002005B
:10356000010003000100020001000400010002004C
:103570000100030001000200010030313233343514
:10358000363738396162636465660030313233340E
:103590003536373839414243444546000534000842
:1035A000FD330008F933000801340008CC35000869
:1035B00000000020AC000000501E00087836000813
:1035C000AC000020A4170000601E000800000000EE
:1035D00000000000000000000100000010000000DA
:1035E000000000000024F4000000000000000000C3
:1035F00000000000000000000000000000000000CB
:1036000000000000000000000000000000000000BA
:103610000000000000000000010000005000002039
:103620005000002078000000020000006000002030
:103630006000002020000000050000007000002055
:1036400070000020300000000A0000008000002010
:10365000800000202C00000000000000000000009E
:10366000000000000000000000000000000000005A
:08367000000000000000000052
:040000050800018965
:00000001FF
